:0400000016EF00F007
:100008004582F2A204D0F292201CD66ED58EF2A4BC
:1000180007D08A82D59EF294140EE82EFED78A92D3
:1000280045921100D1EF01F0176A20EE3FF010EE73
:100038000FF0050EDBCFE3FFE806FCE28B98FF0E1E
:1000480094EC00F0156E8B8815AC67D08B9E250E4E
:10005800EEEC01F08B98270E94EC00F04E0E94EC29
:1000680000F08B8852EC02F03B0E26184CE050D082
:1000780029B002D08A9601D08A862AB002D08A9402
:1000880001D08A842BB002D08A9201D08A822CB007
:1000980002D08A9001D08A8029C021F02AC022F09B
:1000A8002BC023F02CC024F033D0C29AC298C29639
:1000B800C294C282C2B2FED7C4CF16F0026A640EDE
:1000C800016E2FEC02F0C29AC298C286C284C28224
:1000D800C2B2FED7C4CF17F0026A640E016E2FECCD
:1000E80002F01E4A1F2A1EC00FF016C010F017C0DB
:1000F80011F0000E80B4010E126E030E0B6E0F0E7F
:10010800CFEC00F005D02550020AB2E0010ACDE09C
:100118008B8E0E6A010E0D6E010C0D6A0E6A1200AE
:10012800036E046A056A066A00F000F003AE02D0A6
:100138008B8A01D08B9AD890033682A40ED00550B2
:100148000708016E010E026E012A02D0D89002360D
:10015800012EFCD7025004120DD005500708016E7D
:10016800010E026E012A02D0D8900236012EFCD769
:10017800021C04168B8200F000F08B9200F000F055
:10018800054A062A06BED0D7065003E1080E055CCC
:10019800CBE3045012000C6E8B9C1CEC02F00BC0DD
:1001A8002FF03B0E306E040E316E326A0C50D96E51
:1001B800DA6ADF50336E0C50D96EDA6AD92ADF500A
:1001C800346E0C50D96EDA6A020ED926DF50356EBD
:1001D8000C50D96EDA6A030ED926DF50366E0C50F1
:1001E800D96EDA6A040ED926DF50376E0C50D96EF4
:1001F800DA6A050ED926DF50386E2F0E3FEC01F073
:1002080008EC02F08B8C1200D388D38AD38C030EAF
:10021800026EE80E016E2FEC02F0B0EC01F046EC35
:1002280002F068EC01F08B8E8B8C8A968A948A9205
:100238008A90030E026EE80E016E2FEC02F018ECA5
:1002480000F081AA8DEC01F081B8F9D720EE39F0E1
:1002580010EE18F0050EDBCFE3FFE806FCE2040E13
:100268000B6E180ECFEC00F0010E026EF40E016E4C
:100278002FEC02F0E4D7086E4CEC02F08B98A00E3D
:1002880094EC00F0096A0A6A08500924D96EDA6AFF
:10029800DF5094EC00F0094A0A2A0ABEF5D70A5042
:1002A80003E10A0E095CF0E38B888B80420EE82E8E
:1002B800FED700F000F08B90340E076EF20EE82E99
:1002C800FED7072EFCD712008B908B98026A320E4D
:1002D800016E2FEC02F08B98310E94EC00F00A0EB0
:1002E80094EC00F08B888B98320E94EC00F00A0E98
:1002F80094EC00F08B888B98210E94EC00F0000EA3
:1003080094EC00F08B8852EC02F04CEC02F008EF11
:1003180002F08B9E1CEC02F0010E2F6E3B0E306E2D
:10032800040E316E326A21C033F022C034F023C08B
:1003380035F024C036F0090E376E0A0E386E2F0ECF
:100348003FEC01F0010E026EF40E016E2FEC02F08C
:1003580008EC02F08B8E1200BD6A070E7B6E7A6E77
:10036800090E7E6E7F6A7A0EC06EC16A928092888C
:100378009286C2809284F19E7C8A7C88938A938834
:10038800949E949C94989490949A9484949293961E
:1003980093949392939068EF01F000EE1EF01B0E79
:1003A800EE6AE806FDE1800EF66E040EF76E000EAA
:1003B800F86E00EE39F010EE0CF00900F5CFEEFF04
:1003C800E550E150FAE145904592000EF86E0001C3
:1003D80008EF01F0076E8B98610E94EC00F0086A44
:1003E800096A07500824D96EDA6AFF0E94EC00F007
:1003F800DF6E084A092A09BEF4D7095003E10A0E3C
:10040800085CEFE38B8812008B908B98200E94EC9D
:1004180000F0030E94EC00F08B888B80060E076EBC
:10042800300EE82EFED7072EFCD700F000F01200A1
:100438008B908B98200E94EC00F0020E94EC00F058
:100448008B88150E076EC60EE82EFED7072EFCD732
:1004580000F000F012000CD00106D8A00206060E2B
:10046800036E300EE82EFED7032EFCD700F000F006
:1004780001500210F1E11200555555555555555585
:1004880055555555949A9484949294909498120042
:100498008B98E10E94EC00F08B8812008B98E20E9A
:0804A80094EC00F08B881200B7
:020000040020DA
:08000000FFFFFFFFFFFFFFFF00
:020000040030CA
:0E000000FF08191EFF0981FF0FC00FE00F401F
:00000001FF
